{
    "contractName": "Fundi",
    "abi": [
        {
            "inputs": [
                {
                    "internalType": "string",
                    "name": "name",
                    "type": "string"
                }
            ],
            "stateMutability": "payable",
            "type": "constructor"
        },
        {
            "anonymous": false,
            "inputs": [
                {
                    "indexed": false,
                    "internalType": "uint256",
                    "name": "value",
                    "type": "uint256"
                }
            ],
            "name": "Receive",
            "type": "event"
        },
        {
            "inputs": [],
            "name": "FundSeeker",
            "outputs": [
                {
                    "internalType": "uint8",
                    "name": "id",
                    "type": "uint8"
                },
                {
                    "internalType": "string",
                    "name": "userName",
                    "type": "string"
                },
                {
                    "internalType": "address",
                    "name": "account",
                    "type": "address"
                },
                {
                    "internalType": "uint256",
                    "name": "collected_money",
                    "type": "uint256"
                }
            ],
            "stateMutability": "view",
            "type": "function"
        },
        {
            "inputs": [],
            "name": "getAccOwner",
            "outputs": [
                {
                    "internalType": "address",
                    "name": "",
                    "type": "address"
                }
            ],
            "stateMutability": "view",
            "type": "function"
        },
        {
            "inputs": [],
            "name": "getCollectedMoney",
            "outputs": [
                {
                    "internalType": "uint256",
                    "name": "",
                    "type": "uint256"
                }
            ],
            "stateMutability": "payable",
            "type": "function"
        },
        {
            "inputs": [],
            "name": "initiateWithdrawal_Fundi",
            "outputs": [],
            "stateMutability": "payable",
            "type": "function"
        },
        {
            "inputs": [
                {
                    "internalType": "address payable",
                    "name": "contract_id",
                    "type": "address"
                }
            ],
            "name": "setFundPoolAddress",
            "outputs": [],
            "stateMutability": "payable",
            "type": "function"
        },
        {
            "inputs": [
                {
                    "internalType": "address payable",
                    "name": "self_acc",
                    "type": "address"
                }
            ],
            "name": "tranfer_to_self",
            "outputs": [],
            "stateMutability": "payable",
            "type": "function"
        },
        {
            "stateMutability": "payable",
            "type": "receive"
        }
    ],
    "bytecode": "608060408190526000805460ff1916600117905561073f388190039081908339818101604052602081101561003357600080fd5b810190808051604051939291908464010000000082111561005357600080fd5b90830190602082018581111561006857600080fd5b825164010000000081118282018810171561008257600080fd5b82525081516020918201929091019080838360005b838110156100af578181015183820152602001610097565b50505050905090810190601f1680156100dc5780820380516001836020036101000a031916815260200191505b5060405250506001805460ff1916905550805161010090600290602084019061011e565b5050600380546001600160a01b0319163317905560006004556101b9565b828054600181600116156101000203166002900490600052602060002090601f016020900481019282601f1061015f57805160ff191683800117855561018c565b8280016001018555821561018c579182015b8281111561018c578251825591602001919060010190610171565b5061019892915061019c565b5090565b6101b691905b8082111561019857600081556001016101a2565b90565b610577806101c86000396000f3fe6080604052600436106100595760003560e01c80634e70f235146100655780639919fe131461011f578063b7b104e714610147578063c103cb0a1461016d578063c8fbc31d14610175578063d67adb8b146101a657610060565b3661006057005b600080fd5b34801561007157600080fd5b5061007a6101c0565b604051808560ff1660ff16815260200180602001846001600160a01b03166001600160a01b03168152602001838152602001828103825285818151815260200191508051906020019080838360005b838110156100e15781810151838201526020016100c9565b50505050905090810190601f16801561010e5780820380516001836020036101000a031916815260200191505b509550505050505060405180910390f35b6101456004803603602081101561013557600080fd5b50356001600160a01b031661026d565b005b6101456004803603602081101561015d57600080fd5b50356001600160a01b031661035c565b6101456103d8565b34801561018157600080fd5b5061018a610498565b604080516001600160a01b039092168252519081900360200190f35b6101ae6104a7565b60408051918252519081900360200190f35b6001805460028054604080516020610100848816150260001901909316849004601f810184900484028201840190925281815260ff9094169493929183018282801561024d5780601f106102225761010080835404028352916020019161024d565b820191906000526020600020905b81548152906001019060200180831161023057829003601f168201915b50505050600283015460039093015491926001600160a01b031691905084565b6003546001600160a01b031633146102c7576040805162461bcd60e51b81526020600482015260186024820152771c1b19585cd9481d5cd9481bdddb995c881858d8dbdd5b9d60421b604482015290519081900360640190fd5b60005460ff1661031e576040805162461bcd60e51b815260206004820152601e60248201527f796f7520646f6e74206861766520737566666963656e7442616c616e63650000604482015290519081900360640190fd5b6040516001600160a01b038216904780156108fc02916000818181858888f19350505050158015610353573d6000803e3d6000fd5b50506000600455565b6003546001600160a01b031633146103b6576040805162461bcd60e51b81526020600482015260186024820152771c1b19585cd9481d5cd9481bdddb995c881858d8dbdd5b9d60421b604482015290519081900360640190fd5b600580546001600160a01b0319166001600160a01b0392909216919091179055565b6003546001600160a01b03163314610432576040805162461bcd60e51b81526020600482015260186024820152771c1b19585cd9481d5cd9481bdddb995c881858d8dbdd5b9d60421b604482015290519081900360640190fd5b60055460408051637eeb177360e01b815233600482015290516001600160a01b0390921691637eeb17739160248082019260009290919082900301818387803b15801561047e57600080fd5b505af1158015610492573d6000803e3d6000fd5b50505050565b6003546001600160a01b031690565b6003546000906001600160a01b03163314610504576040805162461bcd60e51b81526020600482015260186024820152771c1b19585cd9481d5cd9481bdddb995c881858d8dbdd5b9d60421b604482015290519081900360640190fd5b6040805134815290517f49b4c3f4344f33413322c03885f90f29e906bd8eb0cb2c3d815ee1ad2b3c989c9181900360200190a1504760048190559056fea26469706673582212208365fe5d887aadc145fba2dcf92c5bf7e88f028ecefe9c6697b8b4625aeb3f0864736f6c63430006010033",
    "sourcePath": "d:/mywork/BlockChain/starting_initial/Dapps/hackathon/contracts/contracts.sol",
    "compiler": {
        "name": "solc",
        "version": "0.6.1+commit.e6f7d5a4"
    },
    "functionHashes": {
        "FundSeeker()": "4e70f235",
        "getAccOwner()": "c8fbc31d",
        "getCollectedMoney()": "d67adb8b",
        "initiateWithdrawal_Fundi()": "c103cb0a",
        "setFundPoolAddress(address)": "b7b104e7",
        "tranfer_to_self(address)": "9919fe13"
    },
    "gasEstimates": {
        "creation": {
            "codeDepositCost": "279800",
            "executionCost": "infinite",
            "totalCost": "infinite"
        },
        "external": {
            "FundSeeker()": "infinite",
            "getAccOwner()": "1103",
            "getCollectedMoney()": "22174",
            "initiateWithdrawal_Fundi()": "infinite",
            "setFundPoolAddress(address)": "21911",
            "tranfer_to_self(address)": "infinite"
        }
    }
}